:100000000C9434000C943E000C943E000C943E0082
:100010000C943E000C943E000C943E000C943E0068
:100020000C943E000C943E000C943E000C943E0058
:100030000C943E000C943E000C943E000C943E0048
:100040000C943E000C943E000C943E000C943E0038
:100050000C943E000C943E000C943E000C943E0028
:100060000C943E000C943E0011241FBECFEFD8E04C
:10007000DEBFCDBF0E9457000C9459000C940000C5
:100080008FEF84B985B92FE936E891E021503040EF
:100090009040E1F700C0000015B82FE936E891E084
:1000A000215030409040E1F700C00000EBCF0E94AB
:0600B0004000F894FFCFB0
:00000001FF
