:100000000C9434000C9446000C9446000C9446006A
:100010000C9446000C9446000C9446000C94460048
:100020000C9446000C9446000C9446000C94460038
:100030000C9446000C9446000C9446000C94460028
:100040000C9446000C9446000C9446000C94460018
:100050000C9446000C9446000C9446000C94460008
:100060000C9446000C94460011241FBECFEFD8E03C
:10007000DEBFCDBF12E0A0E0B1E001C01D92A03014
:10008000B107E1F70E949E000C94C2000C9400009E
:100090008FEF84B985B92FE936E891E021503040DF
:1000A0009040E1F700C0000015B82FE936E891E074
:1000B000215030409040E1F700C00000EBCF87B105
:1000C000876087B918B8089598B181E0982798B9E2
:1000D00098B1892788B90895882311F0419A01C001
:1000E000419889EF90E00197F1F700C00000089572
:1000F00098B184E0982798B998B1892788B908956C
:100100000F931F93CF93DF93C0E0D0E0082F10E050
:10011000C8010C2E02C0959587950A94E2F781706C
:100120000E946C000E9464002196C830D10581F7BE
:10013000DF91CF911F910F910C94780087E087B9E0
:100140008FEF8AB98BB90E945F00EE24E394F12C03
:10015000C0E0D0E0C7010C2E01C0880F0A94EAF776
:100160008BB91FEF812F0E94800089E698E10197EB
:10017000F1F700C000001150A9F72196C830D10551
:0801800049F7E6CFF894FFCF28
:00000001FF
